:020000040800F2
:10000000E8070020690200089D0800088305000831
:10001000990800088D040008F70F00080000000090
:10002000000000000000000000000000390B000884
:1000300091040008000000000D0A0008A70C000849
:10004000830200088302000883020008830200087C
:10005000830200088302000883020008830200086C
:10006000830200088302000883020008830200085C
:10007000830200088302000883020008830200084C
:10008000830200088302000883020008830200083C
:10009000830200088302000883020008830200082C
:1000A000830200088302000883020008830200081C
:1000B000830200088302000883020008830200080C
:1000C00083020008830200088302000883020008FC
:1000D00083020008C90D000883020008830200089B
:1000E00083020008830200088302000883020008DC
:1000F00083020008830200088302000883020008CC
:1001000083020008830200088302000883020008BB
:1001100083020008830200088302000883020008AB
:10012000830200088302000883020008830200089B
:10013000830200088302000883020008830200088B
:10014000830200088302000883020008830200087B
:10015000830200088302000883020008830200086B
:10016000830200088302000883020008830200085B
:10017000830200088302000883020008830200084B
:10018000830200088302000800F002F800F05CF827
:100190000AA090E8000C82448344AAF10107DA45E2
:1001A00001D100F051F8AFF2090EBAE80F0013F0D8
:1001B000010F18BFFB1A43F001031847840F00001A
:1001C000A40F00000A444FF0000C10F8013B13F09C
:1001D000070408BF10F8014B1D1108BF10F8015BA0
:1001E000641E05D010F8016B641E01F8016BF9D193
:1001F00013F0080F1EBF10F8014BAD1C0C1B09D1EA
:100200006D1E58BF01F801CBFAD505E014F8016B5B
:1002100001F8016B6D1EF9D59142D6D370470000ED
:100220000023002400250026103A28BF78C1FBD8FF
:10023000520728BF30C148BF0B6070471FB500F0A0
:1002400079FF1FBD10B510BD00F0DCF81146FFF7B7
:10025000F5FF00F02DFF00F00EF903B4FFF7F2FFF9
:1002600003BC00F0CAFE0000094880470948004767
:10027000FEE7FEE7FEE7FEE7FEE7FEE7FEE7FEE756
:10028000FEE7FEE704480549054A064B70470000B3
:10029000A90C000889010008E8010020E8070020F7
:1002A000E8030020E8030020704700000FB4044971
:1002B00010B503AA029800F04FF810BC5DF814FBCB
:1002C0005801002040EA0103024630B59B0710D1D7
:1002D0004FF0013400E008C208C91D1B9D4315EA18
:1002E000C41FF8D013F0FF0102F8011B0DD01B0A48
:1002F000F8E711F8013B002B02F8013B05D011F89B
:10030000013B002B02F8013BF3D130BD4FF000025E
:100310000429C0F0128010F0030C00F03180CCF101
:10032000040CBCF1020F18BF00F8012BA8BF20F885
:10033000022BA1EB0C0100F023B85FEAC17C24BFC3
:1003400000F8012B00F8012B48BF00F8012B704783
:100350007047704770477047074B70B50D467B4438
:1003600000F039F80446284600F048F810B14FF084
:10037000FF3070BD204670BD330D00004FF000020D
:1003800000B5134694469646203922BFA0E80C508B
:10039000A0E80C50B1F12001BFF4F7AF090728BF66
:1003A000A0E80C5048BF0CC05DF804EB890028BFE2
:1003B00040F8042B08BF704748BF20F8022B11F00B
:1003C000804F18BF00F8012B7047000001694A1CDC
:1003D00002610878704700B58FB0CDE90131002186
:1003E000059105497944CDE903101146684600F0AE
:1003F0002EF80FB000BD0000E5FFFFFF007B00F00E
:1004000080007047754600F03DF8AE46050069462D
:10041000534620F00700854618B020B5FFF732FF9D
:10042000BDE820404FF000064FF000074FF00008F5
:100430004FF0000B21F00701AC46ACE8C009ACE876
:10044000C009ACE8C009ACE8C0098D4670472DE989
:10045000F04106460024D6E90170F5688046304632
:1004600003E04146B847641C3046A8470028F8D14D
:100470002046BDE8F0810446AFF300802046FFF738
:10048000ECFE0000004870478801002000BFFEE736
:100490007047F0B50A4600210023002400BF3DE06C
:1004A000012505FA01F3156805EA03049C4234D1DD
:1004B00005684F000326BE40B543056015794E0020
:1004C000B5400668354305601579012D02D01579D0
:1004D000022D16D185684F000326BE40B5438560C6
:1004E00055794E00B54086683543856045680126DC
:1004F0008E40B5434560456896798E40B6B2354327
:100500004560C5684F000326BE40B543C560D57938
:100510004E00B540C6683543C560491C1029BFD39D
:10052000F0BDF0B5002300244D07ED0E02FA05F3EF
:10053000CE1000F1200555F826504E07F70E0F2675
:10054000BE40B543CF1000F1200646F82750CE102C
:1005500000F1200555F8265045EA0304CE1000F1BD
:10056000200545F82640F0BD0246002013690B40E7
:100570000BB1012000E000207047418370470183E8
:10058000704700BFFEE7000010B50121082000F011
:100590003FFA0121102000F03BFA01200E490871BA
:1005A0008871400208600120C87148710B48FFF74C
:1005B00070FF4FF40040084908600948FFF769FFE1
:1005C0004FF400710548FFF7DAFF4FF4004104488B
:1005D000FFF7D5FF10BD000050010020000C0240C5
:1005E0000010024010B50020044908714FF400408B
:1005F00008600348FFF74DFF10BD000050010020C8
:100600000010024010B5012003490871C0030860C2
:100610000248FFF73EFF10BD5001002000100240CD
:1006200010B5FFF7EFFF4FF400410C48FFF7A7FFAD
:100630004FF400710A48FFF7A2FF052000F004FD07
:100640004FF400410548FFF798FF052000F0FCFC3F
:100650004FF400710248FFF790FF10BD00100240F8
:10066000000C024010B5FFF7CDFF4FF400410C48DD
:10067000FFF783FF4FF400710A48FFF77EFF052064
:1006800000F0E2FC4FF400710648FFF778FF052008
:1006900000F0DAFC4FF400410148FFF770FF10BD95
:1006A00000100240000C024010B50024FFF79AFF32
:1006B0004FF400710E48FFF760FF052000F0C4FC06
:1006C0004FF400710A48FFF75AFF052000F0BCFC08
:1006D0004FF400410748FFF747FF08B1012400E04D
:1006E00000244FF400710248FFF747FF204610BD79
:1006F000000C02400010024070B505460024FFF7D0
:1007000081FF4FF400711648FFF737FF052000F016
:100710009BFC21E0C4F1070101208840284028B15A
:100720004FF400410F48FFF72AFF04E04FF4004167
:100730000C48FFF722FF4FF400710948FFF71FFF35
:10074000052000F081FC4FF400710548FFF715FF0C
:10075000052000F079FC641C082CDBDB70BD000078
:10076000000C02400010024010B5FFF70DFF002101
:10077000AE2000F0FDF80021084600F0F9F8002155
:10078000102000F0F5F80021402000F0F1F80021E1
:10079000B02000F0EDF80021812000F0E9F8002100
:1007A000FF2000F0E5F80021A12000F0E1F8002191
:1007B000A62000F0DDF80021A82000F0D9F80021E3
:1007C0003F2000F0D5F80021C82000F0D1F800212A
:1007D000D32000F0CDF80021084600F0C9F8002130
:1007E000D52000F0C5F80021802000F0C1F80021DC
:1007F000D82000F0BDF80021052000F0B9F8002154
:10080000D92000F0B5F80021F12000F0B1F8002166
:10081000DA2000F0ADF80021122000F0A9F8002144
:10082000DB2000F0A5F80021302000F0A1F8002125
:100830008D2000F09DF80021142000F099F800218F
:10084000262000F095F80021084600F091F80021DC
:10085000084600F08DF80021072000F089F80021FB
:10086000072000F085F80021084600F081F80021FB
:10087000FF2000F07DF800212E2000F079F8002103
:10088000D62000F075F80021084600F071F800212C
:10089000AF2000F06DF810BD00BFFEE7704700000C
:1008A00070B5002100230F22C4781CB3174C2468B4
:1008B00004F4E064C4F5E064C4F30721C1F1040466
:1008C000E3B20A4144789C40E1B284781440214369
:1008D0000C07210E0E4C05786155047804F01F05B5
:1008E0000124AC4005786D11AD0005F1E025C5F897
:1008F000004109E0047804F01F050124AC40054DD7
:100900000678761145F8264070BD00000CED00E039
:1009100000E400E080E100E070B500240FE0214633
:10092000002000F00FF8002505E04021002000F035
:100930001FF8681CC5B2802DF7DB601CC4B2082C00
:10094000EDDB70BD70B504460D4605F1B001C8B2CF
:10095000002100F00DF8102141EA1410002100F0F0
:1009600007F804F00F00002100F002F870BD00004D
:1009700070B505460C46FFF753FE7820FFF7BCFE26
:10098000FFF792FE28B1FFF76DFE10A0FFF78EFC77
:1009900070BD2046FFF7B0FEFFF786FE28B1FFF7D7
:1009A00061FE10A0FFF782FCF2E72846FFF7A4FEE5
:1009B000FFF77AFE28B1FFF755FE0FA0FFF776FC90
:1009C000E6E7FFF74FFE00BFE2E70000B7A2CBCD9E
:1009D000C6F7BCFEB5D8D6B7CAA7B0DC2E2E2E0DF2
:1009E0000A000000B7A2CBCDD7D6B5D8D6B7CAA7D4
:1009F000B0DC2E2E2E0D0A00B7A2CBCDCAFDBEDD77
:100A0000CAA7B0DC2E2E2E0D0A0000007047000091
:100A100029B1064A12680243044B1A6004E0034AF3
:100A200012688243014B1A60704700003038024060
:100A300029B1064A12680243044B1A6004E0034AD3
:100A400012688243014B1A6070470000443802402C
:100A5000F0B5002100220024022500260223324F97
:100A60003F6807F00C0121B1042905D0082937D1CE
:100A700005E02E4F076036E02D4F076033E02A4F28
:100A80003F1F3F68C7F38056274F3F1F3F6807F05F
:100A90003F036EB1264FB7FBF3F7DFF88CC0ACF124
:100AA000040CDCF800C0CCF3881C07FB0CF40CE051
:100AB0001E4FB7FBF3F7DFF870C0ACF1040CDCF8A5
:100AC00000C0CCF3881C07FB0CF4174F3F1F3F6896
:100AD000C7F301477F1C7D00B4FBF5F7076002E018
:100AE000124F076000BF00BF0F4F3F6807F0F001D3
:100AF0000909104F7A5C0768D74047600A4F3F6882
:100B000007F4E051890A0B4F7A5C4768D740876049
:100B1000054F3F6807F46041490B064F7A5C476810
:100B2000D740C760F0BD0000083802400024F40040
:100B300000127A0000000020704700000CB5002071
:100B4000019000903448006840F4803032490860D9
:100B500000BF3148006800F4003000900198401C4C
:100B60000190009818B90198B0F5A04FF1D12A482A
:100B7000006800F4003010B10120009001E0002076
:100B800000900098012846D123484030006840F08A
:100B900080502149403108602048006840F44040BE
:100BA0001E4908601C48083000681B49083108606D
:100BB0000846006840F4004008600846006840F4B9
:100BC000A05008601648091F0860081F006840F020
:100BD0008070091F086000BF0F48006800F00070B7
:100BE0000028F9D040F205700E4908600A48083024
:100BF000006820F0030008490831086008460068D2
:100C000040F00200086000BF03480830006800F0B0
:100C10000C000828F8D10CBD0038024000700040DC
:100C200008544007003C02402DE9F04180460F4641
:100C300015461E4639464046FFF784FE002407E06D
:100C4000202101FB0641685C4021FFF791FE641CF6
:100C5000102CF5DB781CC1B24046FFF773FE002470
:100C600009E004F11001202202FB0611685C40211A
:100C7000FFF77EFE641C102CF3DBBDE8F081042836
:100C800008D14FF0E021096941F004014FF0E02262
:100C9000116107E04FF0E021096921F004014FF0F4
:100CA000E02211617047704710B51548006840F4A4
:100CB0007000134908601348006840F001001149B2
:100CC000086000200F49083108600E4800680E498E
:100CD00008400C4908600D48091D0860081F00689D
:100CE00020F48020091F0860002006490C310860AC
:100CF000FFF724FF4FF0006001498039086010BD04
:100D000088ED00E000380240FFFFF6FE10300024BE
:100D100010B56FF00400FFF7B2FF10BD10B588B03A
:100D2000044601211020FFF783FE01210846FFF74A
:100D30006FFE072209212248FFF7F3FB07220A2151
:100D40001F48FFF7EEFB02208DF81C0000208DF8F5
:100D50001E004FF4C060069001208DF81F008DF832
:100D60001D0006A91648FFF794FB02940020ADF879
:100D700014000C20ADF812000020ADF81000ADF802
:100D80000E00ADF80C0002A90E4800F0C5F80122D3
:100D900040F225510B4800F09AF825208DF8040008
:100DA00001208DF807008DF805008DF8060001A8D8
:100DB000FFF776FD0121034800F053F808B010BD9D
:100DC000000002400010014010B540F225511848C3
:100DD00000F053F801282AD1154800F007F9C1B2F4
:100DE000144802780078401C124B18701248815445
:100DF00018460078801E1049085C0D2812D118464C
:100E00000078401E085C0A280CD10C48FFF75AFAFB
:100E100014210948FFF77AFA0020064908700120DA
:100E20000749087040F22551014800F00BF810BD49
:100E3000001001405C0100206001002074010020CE
:100E40005D01002010B50022002340F66A14A14283
:100E500000D100BF0A1201249440A3B2DC430480F5
:100E600010BD21B1828942F40052828104E082895E
:100E70004DF6FF731A408281704770B50246002418
:100E800000230025002040F66A16B14200D100BFC1
:100E9000C1F3421501F01F03012606FA03F3012DE9
:100EA00002D19689334006E0022D02D1168A3340E2
:100EB00001E0968A33400C12012606FA04F41688E3
:100EC000344013B10CB1012000E0002070BDF0B53A
:100ED0000346002400260025002040F66A17B94288
:100EE00000D100BF1846C1F3421401F01F060127CC
:100EF00007FA06F5012C01D10C3004E0022C01D1D7
:100F0000103000E014301AB107682F43076002E088
:100F10000768AF430760F0BD2DE9FF4705460E4661
:100F20000024A14600BFA046B08900B100BF2C8AB2
:100F300024F44054F08804432C82AC8941F20C60C4
:100F40008443B08831890843718908430443AC81E4
:100F5000AC8A24F44074B0890443AC826846FFF73D
:100F600077FD2048854202D01F48854202D1DDF836
:100F70000C9001E0DDF80890A88900F4004040B131
:100F800009EBC90000EB091031684900B0FBF1F72B
:100F900007E009EBC90000EB091031688900B0FBDC
:100FA000F1F76420B7FBF0F004012009642101FB94
:100FB0001078A88900F4004040B1322000EBC8004E
:100FC000B0FBF1F000F00700044308E0322000EB32
:100FD00008106421B0FBF1F000F00F0004432C81F5
:100FE000BDE8FF87001001400014014001468888D9
:100FF000C0F30800704700BFFEE700BF704701461E
:10100000002045F208224A434FF0E0235A610022B3
:101010009A611A46126942F001021A6100BF4FF04C
:10102000E022106900F480321AB900F00102002AAF
:10103000F5D14FF0E022126922F001024FF0E023D7
:101040001A6100229A61704701460020C1EBC1027B
:1010500002EB42024FF0E0235A6100229A611A46E5
:10106000126942F001021A6100BF4FF0E0221069DC
:1010700000F480321AB900F00102002AF5D14FF0D5
:10108000E022126922F001024FF0E0231A610022EF
:101090009A61704700BF054A128802F04002002A98
:1010A000F9D0C2B2014B9A80704700000010014095
:1010B00010B5FFF72DFE4FF4E130FFF72FFEFFF7DD
:1010C00053FBFFF729FC13A0FFF7F0F80021D6200F
:1010D000FFF74EFC00210120FFF74AFC002415E039
:1010E000062094FBF0F100FB1144E3B2104A012109
:1010F0003020FFF799FD4FF4FA70FFF780FFFFF7FC
:101100000BFC4FF4FA70FFF77AFF641C062CE7DD46
:10111000002010BD486172645761726520496E6994
:10112000742053756363657373210D0A000000001A
:10113000900000204FF04070E1EE100A7047000070
:10114000601100080000002060010000C4010008D8
:101150005C120008600100208806000020020008E0
:10116000412D010203040440140607080980804051
:1011700020100824C3040810204080801A02015661
:101180008242221A06300EFC8484FC10E82427E4F4
:1011900024342CE0180F3F10103F8043320E033EE2
:1011A0004242437020200E0404FC20104C4B48485F
:1011B00048C80808150F04040F100A30484442427A
:1011C000414040701F08488808C838272606154443
:1011D000847C1720100C03041840091013121252BB
:1011E00092423E4CC0388801293F212D18292120E8
:1011F000017530111F0E29A454F0F8F8180C0406DC
:101200000505042424243F3F3F06312D30300808D3
:101210003E545870303B18183F5B2031403D6050C1
:101220001008011B98F0AF1982500C302828242494
:101230002222212030181A10014AF05D51293D2B3D
:101240003F3F06514CC0E03041351830E0C03D070B
:0C1250000F181061051110180F070000A6
:040000050800018965
:00000001FF
